:100000000C9463000C948B000C948B000C948B006C
:100010000C948B000C948B000C948B000C941F039D
:100020000C948B000C948B000C948B000C948B0024
:100030000C948B000C948B000C948B000C948B0014
:100040000C94D5020C948B000C94A1030C947B03AC
:100050000C948B000C948B000C948B000C948B00F4
:100060000C948B000C948B000000000023002600F1
:1000700029000200000000240027002A00000000E0
:1000800000250028002B00040404040404040402D6
:100090000202020202030303030303010204081025
:1000A00020408001020408102001020408102000F2
:1000B0000000080002010000030407000000000027
:1000C000000000002B0711241FBECFEFD8E0DEBFD9
:1000D000CDBF11E0A0E0B1E0E0E8FFE002C0059094
:1000E0000D92AC32B107D9F721E0ACE2B1E001C02A
:1000F0001D92A53EB207E1F710E0C3E6D0E004C0D0
:100100002197FE010E94A407C236D107C9F70E94B9
:1001100018040C94BE070C94000090E0FC01E1551B
:10012000FF4F2491FC01E556FF4F3491FC01E95744
:10013000FF4FE491EE2309F43CC0222339F1233030
:1001400091F038F42130A9F0223001F584B58F7D8B
:1001500012C0273091F02830A1F02430B9F48091FA
:1001600080008F7D03C0809180008F778093800016
:100170000DC084B58F7784BD09C08091B0008F77A2
:1001800003C08091B0008F7D8093B000F0E0EE0F4F
:10019000FF1FE358FF4FA591B4919FB7F8946111E9
:1001A00004C08C913095382302C0EC913E2B3C93D7
:1001B0009FBF0895CF93DF9390E0FC01E556FF4F7A
:1001C0002491FC01E957FF4F8491882361F190E06D
:1001D000880F991FFC01ED58FF4FC591D491FC0188
:1001E000E358FF4FA591B491611109C09FB7F894EE
:1001F0008881209582238883EC912E230BC0623066
:1002000061F49FB7F8948881322F309583238883D7
:10021000EC912E2B2C939FBF06C08FB7F894E881EA
:100220002E2B28838FBFDF91CF91089590910001ED
:10023000891324C0E2E7F0E0E4919FEF909300017E
:10024000E130B9F098F0E230C9F4909170009D7FF0
:100250009093700091E09093B0009091B100987FDE
:1002600094609093B1001092B30008C010926E0099
:1002700005C090916F009D7F90936F0060E00C949B
:100280008D00CF92DF92EF92FF920F931F93CF9347
:10029000DF936C017A018B01C0E0D0E0CE15DF0561
:1002A00081F0D8016D918D01D601ED91FC91019005
:1002B000F081E02DC6010995892B11F02196EECF32
:1002C0007E01C701DF91CF911F910F91FF90EF90B9
:1002D000DF90CF900895089580E090E00895FC01AC
:1002E000538D448D252F30E0842F90E0821B930B9B
:1002F000541710F0CF96089501970895FC01918D41
:10030000828D981761F0828DDF01A80FB11D5D9677
:100310008C91928D9F5F9F73928F90E008958FEFE5
:100320009FEF0895FC01918D828D981731F0828D99
:10033000E80FF11D858D90E008958FEF9FEF0895F0
:10034000FC01918D228D892F90E0805C9F4F821B54
:1003500091098F739927089588E491E00E94A00184
:1003600021E0892B09F420E0822F0895FC01848D7F
:10037000DF01A80FB11DA35ABF4F2C91848D90E0CF
:1003800001968F739927848FA689B7892C93A089AA
:10039000B1898C91837080648C93938D848D981334
:1003A00006C00288F389E02D80818F7D80830895C7
:1003B000EF92FF920F931F93CF93DF93EC0181E0B5
:1003C000888F9B8D8C8D981305C0E889F989808171
:1003D00085FD26C0F62E0B8D10E00F5F1F4F0F73AB
:1003E0001127E02E8C8DE8120CC00FB607FCFACF57
:1003F000E889F989808185FFF5CFCE010E94B60199
:10040000F1CF8B8DFE01E80FF11DE35AFF4FF08213
:100410009FB7F8940B8FEA89FB89808180620AC0BC
:100420009FB7F894EE89FF896083E889F989808114
:100430008370806480839FBF81E090E0DF91CF91E3
:100440001F910F91FF90EF900895CF93DF93EC01F0
:10045000888D8823C9F0EA89FB89808185FD05C0E4
:10046000A889B9898C9186FD0FC00FB607FCF5CF1E
:10047000808185FFF2CFA889B9898C9185FFEDCF66
:10048000CE010E94B601E7CFDF91CF91089580E0C1
:1004900090E0892B29F00E94AC0181110C9400009E
:1004A0000895009769F0FC0101900020E9F7319769
:1004B000AF01481B590BBC0188E491E00C94410149
:1004C00080E090E00895CF93DF930E945102EC0109
:1004D00083E191E00E9451028C0F9D1FDF91CF912B
:1004E00008958F929F92AF92BF920F931F93CF93D5
:1004F000DF93CDB7DEB7A1970FB6F894DEBF0FBE7E
:10050000CDBF19A2423008F44AE08E010F5D1F4FA3
:10051000842E912CA12CB12CA50194010E94580786
:10052000E62FB901CA0101501109EA3014F4E05D67
:1005300001C0E95CD801EC93232B242B252B61F718
:10054000C8010E945102A1960FB6F894DEBF0FBEFB
:10055000CDBFDF91CF911F910F91BF90AF909F9032
:100560008F900895CF92DF92EF92FF92CF93DF9317
:100570006B017C016DE288E491E00E94D801EC01FE
:1005800066277727CB016C197D098E099F094AE000
:100590000E9471028C0F9D1FDF91CF91FF90EF9011
:1005A000DF90CF9008950E94B9071F920F920FB667
:1005B0000F9211242F933F938F939F93AF93BF93E9
:1005C0008091440190914501A0914601B09147016D
:1005D0003091430123E0230F2D3720F40196A11D14
:1005E000B11D05C026E8230F0296A11DB11D209361
:1005F00043018093440190934501A0934601B09339
:10060000470180913F0190914001A0914101B0913B
:1006100042010196A11DB11D80933F0190934001BD
:10062000A0934101B0934201BF91AF919F918F91EF
:100630003F912F910F900FBE0F901F9018951F9212
:100640000F920FB60F9211242F933F934F935F9306
:100650006F937F938F939F93AF93BF93EF93FF938A
:100660008091310190913201A0913301B091340118
:10067000892B8A2B8B2B51F190912C01E0912D012C
:10068000F0912E01808189278083809131019091A2
:100690003201A0913301B0913401181619061A06DF
:1006A0001B06C4F48091310190913201A091330175
:1006B000B09134010197A109B10980933101909360
:1006C0003201A0933301B093340104C08091000142
:1006D0000E941601FF91EF91BF91AF919F918F9171
:1006E0007F916F915F914F913F912F910F900FBE2E
:1006F0000F901F9018951F920F920FB60F92112412
:100700002F933F934F935F936F937F938F939F9319
:10071000AF93BF93EF93FF9388E491E00E94B601FB
:10072000FF91EF91BF91AF919F918F917F916F91C9
:100730005F914F913F912F910F900FBE0F901F909F
:1007400018951F920F920FB60F9211242F938F932B
:100750009F93EF93FF93E0915801F09159018081AD
:10076000E0915E01F0915F0182FD12C09081809165
:1007700061018F5F8F7320916201821751F0E091C8
:100780006101F0E0E85BFE4F958F8093610101C04D
:100790008081FF91EF919F918F912F910F900FBECC
:1007A0000F901F901895CF92DF92EF92FF920F93C8
:1007B0001F93E82FF92F05C00150110921093109B4
:1007C00061F1908196239417B9F305C00150110986
:1007D0002109310911F1908196239413F7CFC12C8F
:1007E000D12CE12CF12C0AC08FEFC81AD80AE80AE4
:1007F000F80A0C151D052E053F0579F0808186232A
:10080000841791F36C2D7D2D8E2D9F2D1F910F91AF
:10081000FF90EF90DF90CF90089560E070E080E06F
:1008200090E01F910F91FF90EF90DF90CF9008958F
:10083000CF93DF9300D000D01F92CDB7DEB778946E
:1008400084B5826084BD84B5816084BD85B58260D5
:1008500085BD85B5816085BD80916E008160809386
:100860006E001092810080918100826080938100EF
:1008700080918100816080938100809180008160FF
:10088000809380008091B10084608093B10080915A
:10089000B00081608093B00080917A008460809382
:1008A0007A0080917A00826080937A0080917A0049
:1008B000816080937A0080917A00806880937A00CA
:1008C0001092C10061E083E00E94DA0060E082E003
:1008D0000E94DA0060E083E00E948D00E091580100
:1008E000F091590182E08083E0915401F09155012B
:1008F0001082E0915601F09157018FEC80831092A5
:100900006001E0915C01F0915D0186E08083E091FF
:100910005A01F0915B01808180618083E0915A01EE
:10092000F0915B01808188608083E0915A01F091B1
:100930005B01808180688083E0915A01F0915B01C6
:1009400080818F7D808386E191E00E946302E8E4EC
:100950008E2EE8EE9E2EAA24A394B12CF2E14F2E07
:10096000FAE75F2E612C712CABE82A2EA0E03A2E1C
:1009700061E083E00E948D0083E290E00197F1F74F
:1009800060E083E00E948D00EDE9F0E06491E9E829
:10099000F0E08491E82FF0E0EE0FFF1FE859FF4FE1
:1009A0008591949100E412E42FE030E0462F0E94FC
:1009B000D303611571058105910549F0DC01CB0177
:1009C0000196A11DB11D9C01AD015F7003C020E027
:1009D00030E0A901A7E5B1E00E94990720E23EE4DA
:1009E00040E050E00E947A0730933E0120933D01A1
:1009F000B901330F880B990B97FF03C00E94B20215
:100A000003C04AE00E94710283E291E00E94630207
:100A100080913D0190913E01883C91050CF0AEC162
:100A20002EE1289F8001299F100D11248091000143
:100A3000843021F08F3F09F08FC105C0E2E7F0E07C
:100A4000F491FD8372C084E080930001E2E7F0E05E
:100A5000F491FD83FF3F09F47FC1F13009F441C0F7
:100A600038F1F23009F061C01092B0001092B1007C
:100A70008091B00082608093B0008091B10081606D
:100A80008093B100F1018491E82FF0E0EE0FFF1F99
:100A9000E358FF4F8591949190932E0180932D01FF
:100AA000EFE9F0E0E491E0932C01F2E0FD83CEC1A8
:100AB00014BC15BC84B5826084BD85B5816085BDDC
:100AC000F1018491E82FF0E0EE0FFF1FE358FF4F94
:100AD00085919491EFE9F0E0E491E09330011D827B
:100AE000B5C11092800010928100809181008860D1
:100AF0008093810080918100816080938100F10169
:100B00008491E82FF0E0EE0FFF1FE358FF4F85912F
:100B10009491EFE9F0E0E491E0932F0161E084E04B
:100B20000E94DA00F1E0FD83A7C08D8187FD14C12A
:100B300061E084E00E94DA008D818D7F09F09CC025
:100B40006801E12CF12C60E072E18AE790E0A701F6
:100B500096010E947A0729833A834B835C83BA010A
:100B6000A90141505109610971094F3F51056105C2
:100B7000710509F008F445C060E472E48FE090E08C
:100B8000A70196010E947A07BA01A90141505109B3
:100B9000610971099D819230E9F44F3F510561056A
:100BA000710509F008F4F2C060E970ED83E090E0AF
:100BB000A70196010E947A07BA01A9014150510983
:100BC000610971094F3F51056105710509F020F573
:100BD00083E04BC04F3F510561057105A1F098F0CE
:100BE000C501B401A70196010E947A07BA01A901C3
:100BF0004150510961097109AD81AA2309F4C8C0A6
:100C00001DC181E001C082E0BD81B1112EC095B54A
:100C1000987F892B85BD67C0C501B401A7019601E6
:100C20000E947A07BA01A90141505109610971096D
:100C30004F3F51056105710509F008F4A5C064E254
:100C400074EF80E090E0A70196010E947A07BA0154
:100C5000A90141505109610971094F3F51056105D1
:100C6000710511F008F0C3C085E09091B100987F44
:100C7000892B8093B10030C06801E12CF12C60E039
:100C800072E18AE790E0A70196010E947A07BA0113
:100C9000A901415051096109710941155105E1E06E
:100CA0006E07710570F0C501B401A70196010E949D
:100CB0007A07BA01A901415051096109710983E01C
:100CC00001C081E0FD81F13039F490918100987F7D
:100CD000892B8093810019C08D818130B1F08230E1
:100CE00049F1811139C047BD8FEF9FEFDC0180933F
:100CF000390190933A01A0933B01B0933C0180915C
:100D00006E00826080936E0027C0509389004093EC
:100D100088008FEF9FEFDC018093350190933601BF
:100D2000A0933701B093380180916F008260809367
:100D30006F0012C04093B3008FEF9FEFDC018093F0
:100D4000310190933201A0933301B093340180912B
:100D50007000826080937000B801012E000C880B37
:100D6000990B17FF03C00E94B20203C04AE00E9421
:100D7000710287E291E00E94630203C084E00E9456
:100D800016010E944702F4CD84E06FCF82E06DCF60
:100D90004F3F51056105710541F138F1C301B201C1
:100DA000A70196010E947A07BA01A9014150510991
:100DB000610971094F3F510561057105A1F098F076
:100DC00089819A81AB81BC813AE0B595A7959795C9
:100DD00087953A95D1F7AC01BD01415051096109A0
:100DE000710985E014CF84E012CF83E010CFC301F6
:100DF000B201A70196010E947A07BA01A9014150E8
:100E00005109610971094F3F510561057105A1F053
:100E100098F089819A81AB81BC812AE0B595A7952C
:100E2000979587952A95D1F7AC01BD01415051099D
:100E30006109710987E019CF86E017CF4F3F51054F
:100E40006105710509F098F684E0DECE61E084E08A
:100E50000E94DA0075CEE8E4F1E01382128288EE97
:100E600093E0A0E0B0E084839583A683B78385E018
:100E700091E09183808385EC90E09587848784EC72
:100E800090E09787868780EC90E0918B808B81EC57
:100E900090E0938B828B82EC90E0958B848B86EC38
:100EA00090E0978B868B118E128E138E148E089580
:100EB000A1E21A2EAA1BBB1BFD010DC0AA1FBB1F5E
:100EC000EE1FFF1FA217B307E407F50720F0A21BD0
:100ED000B30BE40BF50B661F771F881F991F1A943D
:100EE00069F760957095809590959B01AC01BD0167
:100EF000CF010895052E97FB1EF400940E949107E0
:100F000057FD07D00E94580707FC03D04EF40C94FD
:100F1000910750954095309521953F4F4F4F5F4F2A
:100F2000089590958095709561957F4F8F4F9F4F55
:100F300008950E94AA07A59F900DB49F900DA49FAD
:100F4000800D911D11240895EE0FFF1F0590F4915F
:100F5000E02D0994A29FB001B39FC001A39F700D23
:100F6000811D1124911DB29F700D811D1124911DB1
:100F7000089581E090E0F8940C94BE07F894FFCFB8
:100F8000FF00000000D80141016F012502A0017E91
:100F90000192010D0A0054686572656D696E696D94
:0C0FA000616C0020636D0020487A0000A6
:00000001FF
